:100000000C947F010C94C6010C94C6010C94C6019B
:100010000C94C6010C94C6010C94C6010C94C60144
:100020000C94C6010C94C6010C94031C0C94D61CB1
:100030000C94DE160C94C6010C94C6010C94C601F7
:100040000C94C6010C94C6010C94C6010C94C60114
:100050000C94C6010C9449170C94C6010C94C6016B
:100060000C94C6010C94C6010C94C6010C94C601F4
:100070000C94C6010C94C6010C94C6010C94C601E4
:100080000C94C6010C94C6010C94C6010C94C601D4
:100090000C94C6010C94C6010C94C6010C94C601C4
:1000A0000C94C6010C94C6010C94C60129001E00D4
:1000B0001F0020002100220023002400250026002C
:1000C00027002D002E002A002B0014001A00080023
:1000D000150017001C0018000C00120013002F0060
:1000E00030003100E00004001600070009000A009B
:1000F0000B000D000E000F0033003400280000003C
:10010000E1001D001B000600190005001100100091
:100110003600370038005200350000000151E2007F
:10012000E30091002C002C002C009000E400500013
:1001300051004F000000000001000100010001001B
:1001400001000100010001000100010001000100A7
:1001500046004C0001000100010001000100010007
:100160000100010001000100010001000100010087
:10017000390001000100010001000100010001003F
:100180000100010001000100010000000100010068
:100190000100010001000100010001000100010057
:1001A00001004B00010000000100010001000100FE
:1001B000010001000100010001004A004E004D0055
:1001C0000000000010036F00720064006500720000
:1001D0003600360000001A0374006F006D007300D3
:1001E0003700340032003000390032003000300077
:1001F00000000403090409023B00020100A0FA09FF
:100200000400000103010100092111010001224045
:10021000000705810308000A09040100010300002A
:1002200000092111010001227B0007058203200043
:100230000A1201100100000008EDFE00000100019B
:1002400002000105010902A10185020901A10005C1
:100250000919012908150025019508750181020574
:1002600001093009311581257F950275088106093C
:10027000381581257F950175088106050C0A38021D
:100280001581257F950175088106C0C0050109808B
:10029000A101850319012AB700150126B7009501B0
:1002A00075108100C0050C0901A101850419012AFE
:1002B000A002150126A002950175108100C005015C
:1002C0000906A101050719E029E715002501950890
:1002D000750181029501750881010507190029FF43
:1002E000150026FF009506750881000508190129EB
:1002F00005950575019102950175039101C01124C1
:100300001FBECFEFDAE0DEBFCDBF04B603FE27C0CD
:100310008091610290916202A0916302B0916402A7
:100320008730904BA740B04BD1F4109261021092ED
:100330006202109263021092640214BE84B7877F37
:1003400084BF0FB6F894A89580916000886180936F
:100350006000109260000FBEE0E0F8E3099511E044
:10036000A0E0B1E0E8E5FEE302C005900D92A438FC
:10037000B107D9F722E0A4E8B1E001C01D92A1368F
:10038000B207E1F70E9443190C94F81E0C94000088
:1003900081E0089581E008950C94CA0108950C94B9
:1003A000CE011F93CF93DF9300D000D00F92CDB733
:1003B000DEB749835A836B833091B30189819A8177
:1003C00031111DC06623B9F02223A9F00E943F1409
:1003D000182F682F89819A810E94E81369817A8198
:1003E000812F0F900F900F900F900F90DF91CF9172
:1003F0001F910C9481020E941614182FEFCF0E94B7
:100400003F1469817A81EDCFFC01262F4081518113
:100410006281738184810C94D101CF93DF93D82FB3
:10042000C92F60E00E9404026D2F7C2FDF91CF91D5
:100430000C94CF010E9498170E948815811102C068
:100440000E942C160C9464040C94670408950E9476
:10045000110F0E9426022FEF84E39CE02150804080
:100460009040E1F700C000000C946D170F931F93AC
:10047000CF93DF93EC0161E00E9404028C01BE0186
:100480000E94CC01882329F1BE01C8010E949A086C
:100490008823F9F0BE01C8010E94EF088823C9F043
:1004A000BE01C8010E94C209882399F08A8188236D
:1004B00039F001158CE5180751F00F3D1C4579F016
:1004C000CE01DF91CF911F910F910C94C8010E9432
:1004D000270280E0DF91CF911F910F9108950E9434
:1004E0002C16F7CF08950C94720281E008950C94B5
:1004F0007502CF93C82F0E9473028C2FCF910C945A
:100500007702972F70E02EE0929F600D711D1124ED
:10051000FB0196E4899FE00DF11D1124EE0FFF1FF2
:10052000E455FF4F859194910895CF93DF930E94F6
:1005300081020E948803EC01811522E5920708F0F0
:1005400062C0811531E5930708F0B5C0883E91057A
:1005500018F5803E9105B8F5883A910570F4853A12
:10056000910508F0A2C08130910569F10497813AA4
:10057000910548F1D0E0C0E026C0885A910947971C
:10058000C8F7C85AD0E0CC0FDD1FCB5EDE4F099014
:10059000D881C02DD46417C0811540E59407B8F404
:1005A000C11580E4D80708F083C0CF3FD10509F01A
:1005B00028F4CD3ED105F0F2D06505C0CE019A9564
:1005C00081159F41B8F6CE01DF91CF910895F4E0F7
:1005D00096958795FA95E1F783702C2F26952695A9
:1005E000237040E2249F90011124382B8C2F8370BC
:1005F000C1E0D0E002C0CC0FDD1F8A95E2F7C22B2C
:10060000D32BDC68E0CFC11586E5D80730F5C115DE
:1006100095E5D90708F063C0C11524E5D207C0F4F9
:100620009C2F969596959E0123703327C115D3452F
:1006300008F046C0C1E0D0E002C0CC0FDD1F2A9513
:10064000E2F720E2929FC0011124C82BD92BD9CF09
:10065000DC2FCC27C46FD06AB6CFC1153AE5D307DB
:1006600088F4C11549E5D40708F044C0CE01985577
:100670008F3F910511F008F07DCFDC2FCC27C06FA4
:10068000D06AA1CFCE0190568115904208F072CF6A
:100690008D2F8F710E94200490E0982F8827882743
:1006A0009F719C012C2BE90123C0A497D0648BCFB0
:1006B000DF70D06A88CFD82FCC27C16FD06A83CFA4
:1006C000C1E0D0E002C0CC0FDD1F2A95E2F730E296
:1006D000939FC0011124C82BD92BDA6874CF8C2FBB
:1006E0000E942004C82FD0E0DC2FCC27CC27DF715C
:1006F000D06269CF8C2F8F700E94200434E0D69591
:10070000C7953A95E1F7CF70DC2FC82FD0695BCF42
:10071000803E910599F1C8F48133910509F476C0C2
:1007200048F48932910509F46AC08A32910509F4C6
:1007300074C0089589339105D1F082389105B9F0DC
:100740008533910509F454C00895843E910599F1CB
:1007500038F4823E9105F9F0833E910509F1089540
:10076000863E910599F1873E9105B9F10895209152
:1007700052022370A1F080EE90E008952091520281
:1007800020FD52C03091530230FF09C024FF4FC0FA
:1007900090E080E004C02091520222FDF7CF08953E
:1007A0002091520222FD46C03091530230FDE3CF2A
:1007B00024FFF5CFEDCF2091530221FFF0CF8091A0
:1007C000520284FDE5CF87EE90E008952091520219
:1007D00023FFE5CF24FDDCCFF6CF2091520223FD8D
:1007E0002CC03091530231FFE3CF84EE90E00895A6
:1007F0002091520225FFD3CF89E290E00895209105
:10080000520225FFCCCF85E390E00895209152025B
:1008100026FFC5CF8AE290E008952091520226FF7C
:10082000BECF81E390E0089589E390E0089583EEE0
:1008300090E0089582EE90E0089586EE90E00895AD
:100840009091520292FF06C0282F28712830F9F4A7
:10085000877F846093FF06C0282F28712831F1F428
:10086000877E84612091530220FF06C0382F3871A3
:100870003830D9F4877F816021FF06C0282F287186
:100880002831D1F4877E816194FD877E0895282FD9
:1008900024712430F9F68B7F8860DCCF282F2471F7
:1008A000243101F78B7E8861DDCF382F31713130F3
:1008B00019F78E7F8860E0CF282F2171213121F731
:1008C0008E7E8861E1CF08950C94630408950C94A2
:1008D0006604E82FF0E0EE0FFF1FEC5BFD4F808118
:1008E00091810895089580EA8A95F1F7089500C0EE
:1008F00008950C947304F894E82FE295EF70F0E0FB
:1009000041A18F7021E030E0B90102C0660F771F6E
:100910008A95E2F7CB01962F9095942391A392A10B
:10092000892B82A3789408950F931F93CF93DF931D
:1009300083E90E947B0482E90E947B0481E90E9492
:100940007B0484E90E947B0480E90E947B04C3E469
:10095000D1E001E511E089910E947B040C171D078D
:10096000D1F710923B0210923A0210924502109277
:10097000440210923D0210923C02109247021092E3
:10098000460210923F0210923E02109249021092CB
:100990004802109241021092400210924B021092B3
:1009A0004A02109243021092420210924D0210929B
:1009B0004C0285E00E946605DF91CF911F910F9157
:1009C0000C941A02AF92BF92CF92DF92EF92FF92F5
:1009D0000F931F93CF93DF9301E511E0CAE3D2E0B9
:1009E000C12CD12CEE24E394F12CF80181918F01DC
:1009F000F894E82FE295EF70F0E021A18F70A70145
:100A000002C0440F551F8A95E2F7CA01922F982B16
:100A100091A392A18095892382A378940E94770460
:100A2000E3E4F1E030E020E0B12CA12C4191A42FCF
:100A3000A295AF70B0E090968C9190E04F7002C09C
:100A4000959587954A95E2F780FD3BC0C701022E38
:100A500002C0880F991F0A94E2F7A82AB92A2F5FCB
:100A60003F4F2E30310511F7F801319780810E94F8
:100A70007B0454E0C5120E94790488819981A816EC
:100A8000B90611F1B982A88281E0D82AC3942296CE
:100A900085E0C812AACF2D2D45E064E472E08AE318
:100AA00092E00E9467050E9424028D2DDF91CF9174
:100AB0001F910F91FF90EF90DF90CF90BF90AF907C
:100AC000089590E080E0C9CF80E0DFCF0895FF92E5
:100AD0000F931F93CF93DF93F82E092F162FD72F45
:100AE000C42F222349F081E0809388010E940E17D1
:100AF0009093870180938601809188018823A1F0DB
:100B000080918601909187010E943A17069760F0C4
:100B1000EF2DF02FA12FBD2F90E080E0D0E08C17BB
:100B20009D0744F010928801DF91CF911F910F91A2
:100B3000FF900895219131912D933D930196EFCF30
:100B400080918F0180FF12C06091050185E0689F50
:100B5000B001112475956795759567956038710595
:100B6000A8F561157105A1F1862F089581FF09C0CF
:100B70006091050185E0689FB00111247595679526
:100B8000EDCF6091050182FD0AC080918E0188231E
:100B9000D1F09091040160910501891728F085E05A
:100BA000689FB0011124DACF869FB001112485E03F
:100BB000869F9001879F300D1124692F70E0C90135
:100BC0000E94881ECBCF65E070E0CECF8FE70895FE
:100BD00081E0089580918F0180FF0CC06091010138
:100BE00070E075956795759567956115710549F183
:100BF000862F089581FF06C06091010170E0759510
:100C00006795F3CF6091010182FD0BC090918D013A
:100C10009923A1F06091000180910101961738F0AD
:100C2000682F70E06038710500F38FE70895899FA1
:100C3000C001112470E00E94881EF4CF61E070E0D2
:100C4000D7CF81E008958D3E31F40E94A0058195B3
:100C50008093930108958E3E19F40E94A005F8CF69
:100C60008F3E31F40E94A0058195809392010895F2
:100C7000803F19F40E94A005F8CF893F29F40E9413
:100C8000EA058093940108958A3F21F40E94EA05C1
:100C90008195F7CF8B3F31F40E94EA0581958093CF
:100CA000950108958C3F19F40E94EA05F8CF9FE062
:100CB000980F983070F4815F990B21E030E001C00B
:100CC000220F8A95EAF780919101822B80939101FE
:100CD00008958D3F31F480918F01816080938F0161
:100CE00008958E3F21F480918F018260F7CF8F3F6E
:100CF000B9F780918F018460F1CF409192018D3ED0
:100D000059F48091930187FF0DC010929301411116
:100D10000BC010928E0108C08E3E81F48091930129
:100D200018169CF3442381F08091940190919501D1
:100D3000892B09F05AC010928D0108958F3E49F415
:100D400047FFF0CF10929201809193018111ECCF77
:100D5000E0CF803F19F41416ACF3E4CF90919401E6
:100D6000893F29F41916F4F610929401DBCF8A3FDB
:100D700019F497FFD7CFF8CF909195018B3F29F4C5
:100D800097FFD0CF10929501CDCF8C3F19F4191653
:100D9000CCF3C8CF9FE0980F983090F4815F990B07
:100DA00021E030E0B90102C0660F771F8A95E2F7B3
:100DB000CB01809590919101892380939101B2CFCD
:100DC0008D3F31F480918F018E7F80938F01AACF68
:100DD0008E3F21F480918F018D7FF7CF8F3F09F0F7
:100DE000A1CF80918F018B7FF0CF08950E940E17C5
:100DF0002091920130919301232B21F080938B015C
:100E000090938C012091940130919501232B21F036
:100E10008093890190938A0180E991E00C94080AFB
:100E2000EF92FF920F931F93CF93DF9300D000D0E8
:100E300000D0CDB7DEB786E0E0E9F1E0DE01119643
:100E400001900D928A95E1F7E0909201F090930164
:100E500000919401109195011092920110929301CA
:100E600010929401109295018F2D8E2991F080910E
:100E70008B0190918C010E943A179C0180918E0108
:100E8000882309F443C0909106019217130608F4D1
:100E90004BC0802F812B91F08091890190918A0124
:100EA0000E943A179C0180918D01882309F47BC030
:100EB000909102019217130608F483C08091920169
:100EC00090919301892B90919401892B9091950198
:100ED000892B11F00E94F606EB82FC820D831E83A3
:100EE00086E0FE013196A0E9B1E001900D928A956D
:100EF000E1F726960FB6F894DEBF0FBECDBFDF91A7
:100F0000CF911F910F91FF90EF90089540910701AD
:100F10009AE0499FA00111244217530708F0B9CF66
:100F20008F5F80938E0102C08F3FD1F7EE2059F082
:100F30000E94A0059FEF1E140CF491E0899F802D64
:100F4000112480939201FF2059F00E94A0059FEF89
:100F50001F140CF491E0899F802D1124809393013C
:100F600030919201332309F494CF209193012223ED
:100F700009F48FCF45EB3403C0011124992359F0B4
:100F80009093920145EB240390011124332339F00F
:100F9000309393017ECF81E080939201F3CF81E083
:100FA0008093930176CF409103019AE0499FA0017D
:100FB00011244217530708F081CF8F5F80938D0172
:100FC00002C08F3FD1F7002359F00E94EA059FEF3E
:100FD00010160CF491E0899F802D112480939401C8
:100FE000112359F00E94EA059FEF11160CF491E0CD
:100FF000899F802D11248093950130919401332392
:1010000009F45CCF20919501222309F457CF45EBD9
:101010003403C0011124992359F09093940145EBB6
:10102000240390011124332339F03093950146CFE6
:1010300081E080939401F3CF81E0809395013ECFCE
:1010400086E0E0E9F1E0DF011D928A95E9F7109270
:101050008E0110928D0110928F0108950F931F93AE
:10106000CF93DF93C42FD22FFC0182818823C9F054
:10107000409398010E940E179093970180939601D8
:1010800080E28C0F883008F050C0C77081E001C04A
:10109000880FCA95EAF7DF91CF911F910F910C94B9
:1010A000680C10919801141335C0809196019091AD
:1010B00097010E943A17883C910560F5C0E2CD0F78
:1010C0001D17B9F080E2810F883040F4177081E07D
:1010D00001C0880F1A95EAF70E946F0CC83048F4D7
:1010E00081E09D2F977001C0880F9A95EAF70E94C2
:1010F000680C802F0E94600CC830B8F4D77081E073
:1011000001C0880FDA95EAF7DF91CF911F910F9117
:101110000C946F0C80E28C0F883038F4C77081E03B
:1011200001C0880FCA95EAF7EFCFDF91CF911F91E9
:101130000F9108950F939C01CB01243F4CE5340798
:10114000A1F190F4293DFCE53F0749F12A3D4CE52A
:101150003407E9F1283D3C45C1F0FC018281882338
:10116000E1F11092980119C0263FFCE53F0719F103
:10117000273F4CE5340729F1253F3C4571F707E24D
:1011800025EE44EE65EF7CE505C006E221EE41EE7A
:1011900068ED7CE50E942E0880E00F91089507E23B
:1011A00025EE45EE69ED7CE5F5CF06E221EE40EE59
:1011B00064EF7CE5EFCF06E221EE42EE66EF7CE5E0
:1011C000E9CF07E225EE46EE67EF7CE5E3CF08E2E4
:1011D00021E045EE6AED7CE5DDCF81E0DECFCF9307
:1011E000DF93EC01FB018281882309F4C9C0C63179
:1011F000FCE5DF07E0F4C2309CE5D907F0F00E947F
:101200009B159093530280935202C631ECE5DE07A2
:1012100020F5C230FCE5DF0798F4809152029091EE
:1012200053020E94A9150E94110F80E006C09E0182
:101230002B5F3C452930310510F3DF91CF910895A4
:10124000FE01E350FC45809152028160E331F105DB
:1012500088F4E650F14E0C949C1ECB5FDC45C930FF
:10126000D105D8F6C35FD04EFE010C949C1E809130
:101270005202826080935202D0CF809152028460E9
:10128000F9CF809152028860F5CF8091530281603E
:1012900080935302C2CF809153028260F9CF809134
:1012A00052028061E7CF809152028062E3CF809149
:1012B00052028064DFCF0E94110F80915202806839
:1012C000D9CF809152028C60D5CF80915302836038
:1012D000DFCF809152028E7FCDCF809152028D7FE1
:1012E000C9CF809152028B7FC5CF80915202877FF8
:1012F000C1CF809153028E7FCBCF809153028D7FDF
:10130000C7CF809152028F7EB5CF809152028F7DE0
:10131000B1CF809152028F7BADCF0E94110F80918F
:1013200052028F77A7CF80915202837FA3CF809103
:1013300053028C7FADCF8091520282FB992790F9A6
:1013400021E0922790FB82F990FB83F993CF809163
:101350005302982F909591708E7F892B90FB81F985
:1013600097CF0E94110F90915202892F97FB87F916
:10137000805880CF81E00E942E164FCF80E0FBCFB7
:1013800081E05BCFCF93DF93EB0186319C4511F574
:101390000E94DC149A81992399F08A7A91E009F4E9
:1013A00090E090939901811109C089E20E94B714DD
:1013B0000E941D1580E0DF91CF91089585E3F6CF5F
:1013C00080919901811104C089E20E94BE14F0CF7E
:1013D00085E3FBCF81E0EFCF90939F0180939E0147
:1013E0000895E0919E01F0919F01309721F00190C6
:1013F000F081E02D099480E00895E0919E01F09144
:101400009F01309721F00280F381E02D0994089527
:10141000DC01E0919E01F0919F01309739F082E06C
:101420008C930480F581E02DCD01099408952091DD
:101430009C0130919D012817390771F090939D010F
:1014400080939C01E0919E01F0919F01309721F0E3
:101450000680F781E02D0994089520919A0130913A
:101460009B012817390771F090939B0180939A0193
:10147000E0919E01F0919F01309721F00084F18569
:10148000E02D099408950E941A176093AF0170939C
:10149000B0018093B1019093B2016093AB0170935E
:1014A000AC018093AD019093AE01089585B780683B
:1014B00085BF85B7806885BF0895089508950C9409
:1014C0005D0A08950C94610A0E94560A80E895E12D
:1014D0000E9491170E945E0A0C945F0A81E00895B1
:1014E0000C946E0A089508950E9405170E949404B2
:1014F0000E94AC170C94620A8F929F92AF92BF9297
:10150000CF92DF92EF92FF920F931F93CF93DF93CF
:1015100000D000D00F92CDB7DEB70E94720A0E94B1
:10152000730A0E94E20481110E94430A51EA852E47
:1015300051E0952E10E000E0A02E802F0E9469045B
:101540007C01F401C190D1904F01C816D90609F46D
:101550005BC080912E0281FD0E947204C6018E251F
:101560009F25B12CCC24C394D12C9C012C213D214E
:10157000232B09F443C00E94700A8823A9F0B98282
:10158000AA82EC20FD2081E0EF2809F480E08B8323
:101590000E940E178160782F9D838C8349815A8128
:1015A0006B818D810E942D0B000F111FF801EF55EB
:1015B000FE4F80819181C826D926D182C0820E94A7
:1015C00010070E94F1099091A0018917A1F10E94D2
:1015D000F1098093A0010F900F900F900F900F9042
:1015E000DF91CF911F910F91FF90EF90DF90CF90FF
:1015F000BF90AF909F908F900C947902B394CC0CD5
:10160000DD1CFEE0BF12B1CF0F5F1F4F053011058B
:1016100009F092CF8FEF89838A831B820E940E1775
:101620008160782F9D838C8349815A816B818D8164
:101630000E942D0BC4CF0F900F900F900F900F9022
:10164000DF91CF911F910F91FF90EF90DF90CF909E
:10165000BF90AF909F908F900895DF92EF92FF928E
:101660000F931F93CF93DF93CDB7DEB72B970FB6B2
:10167000F894DEBF0FBECDBF7A878B87F42E052F7F
:10168000162FE72ED82E61110E94FE147E2DEC82BB
:10169000DD824F2D502F612F8D2D90E02B960FB6B0
:1016A000F894DEBF0FBECDBFDF91CF911F910F9198
:1016B000FF90EF90DF900C947411FC018081918178
:1016C0000C948114CF93C82F882309F48AC08238E0
:1016D000C1F40E94F10981FD84C089E30E94B7141E
:1016E0000E941D152FEF31EE84E0215030408040E4
:1016F000E1F700C0000089E30E94BE14CF910C9472
:101700001D158338A1F40E94F10980FD6AC083E5AC
:101710000E94B7140E941D159FEF21EE34E09150F6
:1017200020403040E1F700C0000083E5E5CF843879
:10173000A1F40E94F10982FD54C087E40E94B7140D
:101740000E941D158FEF91EE24E0815090402040C3
:10175000E1F700C0000087E4CFCF8CEF8C0F813A17
:1017600090F46C2F80910801909109010E94451618
:10177000882329F08C2F0E94BE140E941D158C2FE7
:101780000E94B714BBCF80E28C0F883048F4C7703A
:1017900081E001C0880FCA95EAF70E94DF14AECF3E
:1017A0008BE58C0F833038F42C2F2452330BC90176
:1017B000CF910C94170AE8E5EC0FE73150F4F0E014
:1017C000EE0FFF1FEA5AFE4F80819181CF910C945A
:1017D0002D0ACD3E30F08C2F0E942306CF910C9421
:1017E000F606CF910895882309F452C0823871F427
:1017F0000E94F10981FF4CC089E30E94B7140E9446
:101800001D1589E30E94BE140C941D15833859F4EC
:101810000E94F10980FF3CC083E50E94B7140E943A
:101820001D1583E5EFCF843859F40E94F10982FF3A
:101830002FC087E40E94B7140E941D1587E4E2CFF1
:101840009CEF980F913AF0F290E2980F983050F494
:10185000877091E001C0990F8A95EAF7892F0E945D
:10186000E514D2CF9BE5980F933020F490E080E010
:101870000C94170A98E5980F973120F490E080E0D7
:101880000C942D0A8D3E20F00E947D060C94F606E5
:1018900008951F93CF93DF93182FEB010E94620BE3
:1018A000209731F4812FDF91CF911F910C94F30B8E
:1018B0008FE99FE00197F1F700C000002197F0CF7A
:1018C00070E060E0893311F460E570E00C94490C3D
:1018D000882321F00E94DF140C941D15089588239D
:1018E00021F00E94E5140C941D150895AF92BF924B
:1018F000CF92DF92EF92FF920F931F93CF93DF93DC
:1019000000D000D00F92CDB7DEB76C016D83798324
:10191000FC011281058102950F700E94D514E82EFA
:101920008823A1F0E12E112389F08981807F803402
:1019300029F08D81805EE12C883040F082E00E94A9
:1019400068150E94D51491E0E82EE92689818295D8
:101950008F70A82EB12C8C30A8F5F501EA5EF04E00
:101960000C949C1E09810F70F981F07F11F0029593
:10197000007F1123B1F0002361F08D81805E8830FB
:1019800018F01D81111109C0802F0E94DF140E94E0
:101990001D158D810E94620B15C0802F0E94F014CE
:1019A000F6CF8D810E94F30B002361F08D81805E64
:1019B000883018F01D81111133C0802F0E94E5146A
:1019C0000E941D1598E0A91AB108E4E0AE16B10412
:1019D00020F40E94F1090E947902EE2009F4BCC1B2
:1019E0000E94D11480FDB8C1F60112820E94CB146E
:1019F0000E94D812C6010E94D30E0E94CB140F90F1
:101A00000F900F900F900F90DF91CF911F910F913A
:101A1000FF90EF90DF90CF90BF90AF900C940913A0
:101A2000802F0E94F614CCCF29812F70F22E39819D
:101A3000307F303219F0F29480EFF8228D818823C4
:101A400069F0813049F1112391F1002351F1F60140
:101A5000858180FF9ECF8F70858323C0112381F005
:101A6000011106C00E9404158F290E94680CAACF9C
:101A70000130C1F70E9404158F290E940A15A2CFD8
:101A8000011106C00E9413158F2D0E946F0C9ACF72
:101A9000013009F497CFF6CF112329F0063008F072
:101AA00091CF8F2DE2CF053008F08CCFEDCF002302
:101AB00059F30D81093349F41FEF27EE33E011503C
:101AC00020403040E1F700C000008D810E94F30B00
:101AD00079CF898186958695837069F0813009F088
:101AE00071CF8D8199819370111102C090E080E0D7
:101AF0000E942D0A67CF8D8199819370111102C0C8
:101B000090E080E00E94170A5DCF8D81112329F0BB
:101B10000E9423060E94F60655CF0E947D06FACF4A
:101B20008981837009F050C011114CCF2D8122950D
:101B300026952770220F220F8D818F7090E0B0E0E4
:101B4000A0E0022E04C0880F991FAA1FBB1F0A9491
:101B5000D2F70D8140E050E0BA0104FF0FC04FE022
:101B600050E060E070E004C0440F551F661F771F0F
:101B70002A95D2F7409550956095709519811695E4
:101B8000169513701D838A019B01082B192B2A2B94
:101B90003B2B09831A832B833C831D8169817A81C6
:101BA0008B819C81123051F0133059F0113019F0B3
:101BB0000E944E1207CF0E94261204CF0E94761276
:101BC00001CF0E942412FECE8695112311F0898147
:101BD0008170882309F4F6CE2D81229526952770F1
:101BE000220F220F8D818F7090E0B0E0A0E0022ED6
:101BF00004C0880F991FAA1FBB1F0A94D2F70D813A
:101C000040E050E0BA0104FF0FC04FE050E060E058
:101C100070E004C0440F551F661F771F2A95D2F746
:101C2000409550956095709519811695169513708D
:101C30001D838A019B01082B192B2A2B3B2B09831F
:101C40001A832B833C831D8169817A818B819C81DE
:101C5000123051F0133059F0113019F00E949713DF
:101C6000B1CE0E946F13AECE0E94BF13ABCE0E94C6
:101C7000A212A8CE09810F700983112329F0802FA9
:101C80000E94D8128D81F1CE8D810E946F0C8981C6
:101C90000E94091397CE2D81223FA1F160F4203FCD
:101CA000E1F0213F41F1112309F445C0011171CE4A
:101CB00089818F7124C03D81333F49F1343F99F7C9
:101CC000112379F109810F710983802F0E94D812A5
:101CD00063E089810E94531575CE112341F00530D0
:101CE00008F070CE89818F710E943E136BCE063052
:101CF00008F068CEF7CF89818F71112349F20E94D5
:101D0000D81260CE89818F711123C9F3C1CF1123FD
:101D100029F089818F710E94B31254CE0E94AE12B5
:101D200051CE81E00E946815023008F44BCE82E06B
:101D30000E94681547CE002361F01D81193309F018
:101D4000C4CE2FEF37EE83E0215030408040E1F7E2
:101D5000BACE89818F719CCF0F900F900F900F900A
:101D60000F90DF91CF911F910F91FF90EF90DF9037
:101D7000CF90BF90AF9008950F931F93CF93DF93B1
:101D8000EC01688179818A810E948D148C010E9406
:101D9000E7130E942312B801CE01DF91CF911F916A
:101DA0000F910C94760CCF93DF93EC018B819C8187
:101DB000892B29F08881998189238F3F59F4DF91FC
:101DC000CF910895CE010E94BC0ECE01DF91CF913C
:101DD0000C940D02CE010E9436028111F3CF0E94B5
:101DE000D514882361F38A81882349F382E0DF9147
:101DF000CF910C94681590E080E00E94170A90E063
:101E000080E00E942D0A0E94FE140E9401150E948B
:101E10001D150E9420080C94F6060E94C5140C940F
:101E2000FB0E0E94ED140C940D0F282F892F829524
:101E30008F70903C80F48A30B0F4843020F482308B
:101E400090F480E008958630E1F781E0283E88F044
:101E5000213FB9F70EC08C3011F08F3091F793FB12
:101E6000882780F9089581E0203F39F018F4283E52
:101E700040F70895243F29F7FCCF08950E9481146C
:101E80000C94150FCF93DF9300D000D00F92CDB7F5
:101E9000DEB70F900F900F900F900F90DF91CF91C2
:101EA0000895CF93DF9300D000D000D0CDB7DEB738
:101EB00026960FB6F894DEBF0FBECDBFDF91CF914F
:101EC00008951F93CF93DF93E091B40116E08091C2
:101ED000B5018E1304C0DF91CF911F910895CE2FCD
:101EE000D0E01E9FF0011124EA54FE4F4081518141
:101EF00062817381848195810E94510FFE01319628
:101F0000E770E5CF4091E6015091E7016091E8016B
:101F10007091E9018091EA019091EB010C94510FCD
:101F20001F93CF93DF938091EB01807FA9F4809181
:101F3000E801882389F08091B401C091B5016091D6
:101F4000E6017091E701A091E901B091EA01D62F75
:101F5000D72316E0C81304C0DF91CF911F910895D5
:101F600090E0109711F0DF3F19F401968770F2CFDF
:101F7000189F9001199F300D1124F901EA54FE4F6A
:101F800041814713F2CF40814613EFCF4281411187
:101F9000ECCF438154814A1B5B0B483C510528F729
:101FA0008091EB018F7080618093EB01F901E55422
:101FB000FE4F80818F708061808386EE91E00E9469
:101FC000D30EDF91CF911F910C94610FAF92BF920E
:101FD000CF92DF92EF92FF920F931F93CF93DF93F5
:101FE000CDB7DEB72B970FB6F894DEBF0FBECDBFCF
:101FF0008C0185E0F801DE01179601900D928A951B
:10200000E1F7F80140815181E28086EEC82E81E03F
:10201000D82E6091E9017091EA016115710509F40A
:1020200044C19091E6012091E701822F89238F3FDF
:1020300009F43BC1A380B480F090E801F501E61BF0
:10204000F70BFF2009F4E0C08091EB01382F307FBF
:10205000E83CF10508F0B2C0311179C0FE2C25131F
:1020600023C0941321C0E1101FC08F708061809342
:10207000EB010E94820FC6010E94D30E8091EB01FA
:10208000F80185838F2D2B960FB6F894DEBF0FBE17
:10209000CDBFDF91CF911F910F91FF90EF90DF9017
:1020A000CF90BF90AF900895AB2829F0842F85235F
:1020B0008F3F09F016C180E0F82FF170DF2EE0911C
:1020C000B4012091B50136E080FD1CC0EE20D1F2B4
:1020D0008091EB0181608093EB01F12CD3CF8E2FA7
:1020E00090E03E9FF0011124EA54FE4F6181651398
:1020F00006C06081641303C06281E612E7CFFC0171
:102100003196E770E213EBCF4F8358878F81988524
:102110000E948114292F22952F70903260F0225F47
:102120002F70223078F49F7051F0F8019581907FE4
:1021300031F4D12C0AC09F7011F08823D1F3805E56
:102140008830B8F3C8010E94D30EFD2C9BCF251315
:1021500006C0941304C0F801EE2009F470C04F8348
:1021600058878F8198850E943E0F882319F1EE20B1
:1021700009F18091EB01803270F02091E6013091FD
:10218000E7013A8329831B82BD82AC828E83CE0114
:1021900001960E94D30E86E0F801A6EEB1E0019010
:1021A0000D928A95E1F70E94900F0E94820FFF2402
:1021B000F39468CFC8010E94D30EF9CF311113C038
:1021C0007A2DBB86AA866E2D8B850E94420F86EEE5
:1021D00091E00E94D30E86E0F60111928A95E9F70C
:1021E0000E94820F7ACF2513BACF9413B8CFE11093
:1021F000B6CFF8018583C8010E94D30E86E0F601B0
:1022000011928A95E9F73ECFE83CF10508F040C00D
:10221000FE2CEE2079F225132AC0941328C0809159
:10222000EB0180FD1BC0982F907FC1F0F8018583E2
:10223000903F31F0982F907F905F8F70892B85832E
:10224000C8010E94D30E86E0F801A6EEB1E001902D
:102250000D928A95E1F70E94820F14CF86E0F80173
:10226000A6EEB1E001900D928A95E1F70BCF4F8376
:1022700058878F8198850E943E0F81118CCF809165
:10228000EB0181608093EB01C8010E94D30EFACE6E
:102290007A2DBB86AA866E2D8B850E94420F86E022
:1022A000F60111928A95E9F7D6CFEE2009F482CF94
:1022B0004F8358878F8198850E943E0FF82E882380
:1022C00009F478CF86E0F801A6EEB1E001900D9216
:1022D0008A95E1F786EE91E00E945D0B0E94900FD7
:1022E000BACF81E08E25E8CE1F93CF93DF93CDB791
:1022F000DEB72C970FB6F894DEBF0FBECDBF4F836D
:10230000588769877A878B879C87CE0107960E94BA
:10231000E60F882369F08A859B85892B39F04F81E8
:102320005885842F85238F3F09F077C016E065C05C
:1023300086E0FE013796DE01119601900D928A9596
:10234000E1F76A857B856115710581F35F814885B9
:10235000842F85238F3F51F32091B50130E0C901CF
:10236000019687709927E091B401E817190671F476
:102370000E94110F1092B5011092B40186E0E6EEB2
:10238000F1E0DF011D928A95E9F7D0CF59834A83A6
:102390007D836C8396E0929FD001939FB00D1124B2
:1023A000AA54BE4FFE01319601900D929A95E1F725
:1023B0008093B5010E94610FB9CF819FC0011124A4
:1023C0008A549E4F0E94E60F8823E9F0E091B40101
:1023D0001E9FF0011124EA54FE4F40815181628119
:1023E0007381848195810E94510F8091B40190E0A6
:1023F0000196877099278093B4018091B4019091E0
:10240000B5018913DACF2C960FB6F894DEBF0FBE54
:10241000CDBFDF91CF911F91089569857A858B8516
:102420009C850E94510F82CF08950C9414120E9433
:10243000151260931D0270931E0280931F029093E9
:1024400020020C94FB0E08950C941712CF93DF9387
:1024500000D000D0CDB7DEB769837A838B839C83AD
:1024600080911D0290911E02A0911F02B091200246
:1024700029813A814B815C81282B392B4A2B5B2B9C
:1024800029833A834B835C83CA01B9010F900F9073
:102490000F900F90DF91CF910C941712CF93DF9391
:1024A00000D000D0CDB7DEB769837A838B839C835D
:1024B00080911D0290911E02A0911F02B0912002F6
:1024C00029813A814B815C81282339234A235B236C
:1024D00029833A834B835C83CA01B9010F900F9023
:1024E0000F900F90DF91CF910C941712CF93DF9341
:1024F00000D000D0CDB7DEB769837A838B839C830D
:1025000080911D0290911E02A0911F02B0912002A5
:1025100029813A814B815C81282739274A275B270B
:1025200029833A834B835C83CA01B9010F900F90D2
:102530000F900F90DF91CF910C9417120C941412FE
:102540000C949E120E94A0126093190270931A02BA
:1025500080931B0290931C020C94FB0E60E070E0D1
:10256000CB010C94A2120F931F93CF93DF9300D053
:1025700000D0CDB7DEB741E050E060E070E08A0106
:102580009B0104C0000F111F221F331F8A95D2F731
:1025900009831A832B833C83C901B8010F900F90E4
:1025A0000F900F90DF91CF911F910F910C94A21279
:1025B0000F931F93CF93DF9300D000D0CDB7DEB73A
:1025C00041E050E060E070E004C0440F551F661F1A
:1025D000771F8A95D2F78091190290911A02A091E3
:1025E0001B02B0911C028A019B01082B192B2A2B7C
:1025F0003B2B09831A832B833C83C901B8010F90BD
:102600000F900F900F90DF91CF911F910F910C942D
:10261000A2120F931F93CF93DF9300D000D0CDB7BA
:10262000DEB741E050E060E070E004C0440F551FA9
:10263000661F771F8A95D2F74095509560957095E3
:102640008091190290911A02A0911B02B0911C0274
:102650008A019B01082319232A233B2309831A8318
:102660002B833C83C901B8010F900F900F900F90FE
:10267000DF91CF911F910F910C94A2120F931F9392
:10268000CF93DF9300D000D0CDB7DEB741E050E06C
:1026900060E070E004C0440F551F661F771F8A95E5
:1026A000D2F78091190290911A02A0911B02B09169
:1026B0001C028A019B01082719272A273B27098327
:1026C0001A832B833C83C901B8010F900F900F90A0
:1026D0000F90DF91CF911F910F910C94A212CF9385
:1026E000DF9300D000D0CDB7DEB769837A838B83C8
:1026F0009C838091190290911A02A0911B02B091C3
:102700001C0229813A814B815C81282B392B4A2B71
:102710005B2B29833A834B835C83CA01B9010F90F9
:102720000F900F900F90DF91CF910C94A212CF9346
:10273000DF9300D000D0CDB7DEB769837A838B8377
:102740009C838091190290911A02A0911B02B09172
:102750001C0229813A814B815C81282339234A2339
:102760005B2329833A834B835C83CA01B9010F90B1
:102770000F900F900F90DF91CF910C94A212CF93F6
:10278000DF9300D000D0CDB7DEB769837A838B8327
:102790009C838091190290911A02A0911B02B09122
:1027A0001C0229813A814B815C81282739274A27DD
:1027B0005B2729833A834B835C83CA01B9010F905D
:1027C0000F900F900F90DF91CF910C94A21208956B
:1027D000E82F2EE0929FE00D11248E2F877041E0AC
:1027E00001C0440F8A95EAF7E695E695E69585E0FF
:1027F000E89FF0011124E451FE4F30E020E070E04A
:102800005191DF011197CB01022E02C09695879559
:102810000A94E2F7817081958527842385278C931C
:102820002F5F3F4F2530310559F70895E82F2EE0EF
:10283000929FE00D11249E2F9770E695E695E69500
:1028400085E0E89FF0011124E451FE4F50E040E0A4
:1028500080E0219130E0092E02C0369527950A9438
:10286000E2F721703327042E01C0220F0A94EAF701
:10287000822B4F5F5F4F4530510559F70895BF9246
:10288000CF92DF92EF92FF920F931F93CF93DF933C
:102890008C01C0901902D0901A02E0901B02F090B7
:1028A0001C0280911D0290911E02A0911F02B09106
:1028B0002002C82AD92AEA2AFB2ACFE1D0E0BC2E7E
:1028C000D701C6010C2E04C0B695A795979587959C
:1028D0000A94D2F780FD0EC0219788F7B12C8B2D7A
:1028E000DF91CF911F910F91FF90EF90DF90CF90EC
:1028F000BF900895B8018C2F0E949502019761F353
:10290000EECFCF93DF93D82FC92F0E943F146D2FA6
:102910007C2FDF91CF910C9495021F93CF93DF937F
:10292000162FD72F9091B301992339F0862F972F27
:10293000DF91CF911F910C948114882391F0862F01
:10294000972F0E943F14C82F682F812F9D2F0E9420
:10295000E813612F7D2F8C2FDF91CF911F910C9465
:102960009502862F972F0E941614C82FF2CF682F3A
:1029700080910801909109010C947F16682F809135
:102980000801909109010C948116809108019091A1
:1029900009010C9483168091210285958595859572
:1029A0000895809121028770089590912102977077
:1029B00081E009F480E0089580912D0208959091BE
:1029C0002D02982B90932D020895982F9095809129
:1029D0002D02892380932D02089510922D020895CF
:1029E00090912C02982B90932C020895982F9095FB
:1029F00080912C02892380932C02089510922C023E
:102A0000089510922B02089580912202089508954E
:102A10000C94071590912202981721F080932202BE
:102A20000C940815089580912202882329F01092B1
:102A3000220280E00C9408150895E0910801F091BD
:102A4000090180912D028083E0910801F091090134
:102A5000808190912C02892B8083E0910801F09174
:102A60000901808190912B02892B80839091220211
:102A7000992381F0E0910801F09109018081892B6F
:102A8000808380910801909109010E943316811181
:102A90000E94131580910801909109010C94FD0981
:102AA00008950C94501598E0899F90011124622B91
:102AB000609321020E94D81280912102859585950C
:102AC00085950C9451151092210280E00C945115BB
:102AD000909121028095892380932102282F2770CD
:102AE00071F4282F082E000C330B9217130639F0BF
:102AF0008595859585950E9409130C946315089515
:102B000080E008956FEF7FEF90E080E00C94E21E8C
:102B100090E080E00E94BE1E9C0181E02B3E3E4F73
:102B200009F080E0089582E090E00C94B61E83E006
:102B300090E00C94B61ECF9384E090E00E94B61E05
:102B4000C82F81E290E00E94B61E982F8C2FCF9163
:102B50000895CF93682FC92F84E090E00E94C41E8F
:102B60006C2F81E290E0CF910C94C41EAB01BC01AC
:102B70008FE090E00C94D61EAB01BC0183E190E0A5
:102B80000C94D61E60E070E0CB010C94BC1560E0A4
:102B900070E0CB010E94B6150C94C2156BEE7EEF6F
:102BA00090E080E00E94E21E60E082E090E00E94FF
:102BB000C41E60E083E090E00E94C41E10921D02DB
:102BC00010921E0210921F021092200260E084E018
:102BD00090E00E94C41E60E081E290E00E94C41E6A
:102BE00060E085E090E00E94C41E60E086E090E036
:102BF0000E94C41E6FEF87E090E00E94C41E40E078
:102C000050E0BA0188E090E00E94D61E60E08DE0BE
:102C100090E00E94C41E40E050E0BA0188E190E0DC
:102C20000E94D61E60E087E190E00E94C41E40E052
:102C300050E0BA018CE190E00E94D61E60E080E294
:102C400090E00E94C41E40E050E0BA0188E190E0AC
:102C50000E94D61E0C94C7150C94CE15682F8EE0DA
:102C600090E00C94C41EAC019C012E5F3F4F485F66
:102C70005F4F80E02417350709F40895F901919119
:102C80009F019923B9F38F5FF5CF9C01662351F023
:102C9000FC013296285F3F4F8191861729F0E21799
:102CA000F307D1F780E0089581E008959C01FC01CD
:102CB00032968FEF90E04191461751F08F3F19F413
:102CC000411101C0892F9F5F9630A9F78F3F09F40A
:102CD0000895280F311D87FD3A95F9016283089503
:102CE0009C01FC013296285F3F4F8191861303C0FF
:102CF000DF0111971C92E217F307B9F708950C94BE
:102D000056160C947016FC01329686E0DF011D9277
:102D10008A95E9F70895089508950C948C1680918A
:102D20005802843049F10E948D1680E00E94790299
:102D300010922F0288E190E020E40FB6F894A89555
:102D4000809360000FBE2093600083B7817F846012
:102D500083BF83B7816083BF7894889583B78E7F64
:102D600083BF0FB6F894A895809160008861809326
:102D70006000109260000FBE08950895CF930E94E6
:102D80008B160E94E2040E94BD16C0E08C2F0E94A8
:102D90006904892B31F4CF5FC530C1F780E0CF9152
:102DA000089581E0FCCF08950C94D3160E94110F72
:102DB0000E94F1090E9479020C94D4161F921FB64A
:102DC0001F9211248F939F93AF93BF9380912F02F3
:102DD000811113C080914E0290914F02A091500238
:102DE000B09151024196A11DB11D80934E02909366
:102DF0004F02A0935002B0935102BF91AF919F91A7
:102E00008F911F901FBE1F90189582E084BD93E0A4
:102E100095BD9AEF97BD80936E0008952FB7F894F3
:102E200080914E0290914F02A0915002B0915102B8
:102E30002FBF0895CF93DF9300D000D0CDB7DEB77A
:102E40008FB7F89420914E0230914F02409150027A
:102E50005091510229833A834B835C838FBF6981F0
:102E60007A818B819C810F900F900F900F90DF9152
:102E7000CF9108959C014FB7F89480914E029091A4
:102E80004F02A0915002B09151024FBF821B930B91
:102E9000089578941F921FB61F9211248F939F93C9
:102EA000AF93BF9380914E0290914F02A091500238
:102EB000B09151020196A11DB11D80934E029093D5
:102EC0004F02A0935002B0935102BF91AF919F91D6
:102ED0008F911F901FBE1F90189581E08093E00096
:102EE00080E28093D8001092C9008FE19EE40197A0
:102EF000F1F700C0000087E090EBDC0180936102F5
:102F000090936202A0936302B093640288E19CE014
:102F10000FB6F894A895809360000FBE9093600060
:102F2000FFCF909385018093840108950C948215BE
:102F30000E94E2048FE39CE90197F1F700C00000D2
:102F40000E94E20480E00E94690480FF04C00E94A5
:102F500096170C946D170895CF93DF9300D000D08F
:102F6000CDB7DEB70E948815811102C00E942C16D1
:102F70000E94931580932E020E949B1590935302FA
:102F8000809352020E949715282F30E050E040E0D5
:102F9000CA01B9010E9424128091190290911A026B
:102FA000A0911B02B0911C0289839A83AB83BC83DE
:102FB000BC01CD010F900F900F900F90DF91CF913A
:102FC0000C94A012809138020895CF93DF9300D023
:102FD0000F92CDB7DEB790915802943019F58983DE
:102FE0006A837B8382E08093E9008FEF9091E80011
:102FF000815095FD06C095ED9A95F1F7000081117D
:10300000F5CF8091E80085FF0DC050E040E063E01F
:1030100070E0CE0101960E94001A8091E8008E7740
:103020008093E8000F900F900F90DF91CF9108955B
:10303000BC0184E00C94E517BC0183E00C94E51717
:1030400022E02093E9002FEF3091E800215035FD78
:1030500006C035ED3A95F1F700002111F5CF20912A
:10306000E80025FF0BC050E040E066E070E00E9401
:10307000001A8091E8008E778093E8000895CF933E
:10308000DF93D82FC92F81E08093E9008FEF9091D3
:10309000E800815095FD06C095ED9A95F1F7000086
:1030A0008111F5CF8091E80085FF16C050E040E027
:1030B00068E070E08D2F9C2F0E94001A8091E8003C
:1030C0008E778093E80088E0ED2FFC2FA0E3B2E03C
:1030D00001900D928A95E1F7DF91CF91089580914B
:1030E0005702811109C00E94881B0E94E51B809134
:1030F000E20084608093E2000895109257020895E0
:1031000008950895089542E061EC81E00E94041B57
:1031100042E261EC82E00C94041B80915A028930F7
:1031200089F148F4823009F49DC0833009F458C015
:10313000813041F008958A3009F484C08B3009F45D
:103140006AC0089580915902813A09F048C080917F
:10315000E800877F8093E80080915D0290915E0295
:10316000892B61F468E080E392E070E00E944F1ADE
:103170008091E8008B778093E800089560E090E00C
:1031800080E0F3CF80915902813249F580915D0250
:1031900090915E02029718F58091E800877F8093F6
:1031A000E8008091E80082FF16C09091F3008091C2
:1031B000F200029729F48091F1008B7F813021F495
:1031C0008091F100809338028091E8008B778093A2
:1031D000E8000C94381B809158028111E2CF0895C9
:1031E00080915902813AD9F780915D0290915E02F7
:1031F000892BA9F78091E800877F8093E800809170
:10320000E80080FFFCCF809114018093F100809151
:10321000E8008E77DCCF80915902813201F78091EE
:103220005D0290915E02892BD1F68091E800877F44
:103230008093E8000E94381B80915B028093140108
:103240000C94110F80915902813249F68091E80067
:10325000877F8093E8000E94381B80915C028093F6
:103260003902089580915902813A09F0B8CF8091CE
:10327000E800877F8093E8008091E80080FFFCCF22
:1032800080913902C2CF84B7877F84BF0FB6F8948C
:10329000A895809160008861809360001092600022
:1032A0000FBE80E890E00FB6F89480936100909391
:1032B00061000FBE0E94640A0E94881B0E94E51BE9
:1032C0008091E20084608093E20078940E946D1EF9
:1032D0000E94740A8AE091E00E94EC0980915802F1
:1032E0008530A9F00E947C0A0E94720A0E94730A2B
:1032F000F5CF0E948F1680915602882341F00E94DC
:10330000BE16882321F00E94EA190E94110F8091B5
:103310005802853071F30E94D616E4CF0C949019B0
:10332000FC01CB01DA012F2F332723303105D1F0F7
:1033300070F42130310509F43EC02230310569F4C2
:103340008BE390E026EF31E02D933C9308952132FA
:103350003105E9F02232310521F190E080E030E0E2
:1033600020E0F2CFCF019927E13059F0823091056A
:1033700059F0E2EFF1E0892B81F7849190E09F0111
:10338000E3CFE6EDF1E0F9CFE4ECF1E0F6CF892B05
:10339000B9F06130710509F789E090E021E232E08F
:1033A000D3CF892B91F061307105B9F68BE790E0AE
:1033B00023E432E0C9CF82E190E021E332E0C4CFE0
:1033C00089E090E028E032E0BFCF80E490E02EEB8F
:1033D00032E0BACF80E189BD82E189BD09B400FE47
:1033E000FDCF8091D8008F7D8093D8008091E00040
:1033F00082608093E0008091E00081FDFCCF089521
:10340000AF92BF92CF92DF92FF920F931F93CF9311
:10341000DF936C01EB018A010E94571BF82E81118A
:1034200023C00115110539F0F80180819181C81B75
:10343000D90BC80ED91EB12CA12C2097A9F08091D0
:10344000E80085FD22C08091E8008E778093E80037
:1034500001151105A1F0F80180819181A80EB91E16
:10346000B182A08285E0F82E8F2DDF91CF911F9140
:103470000F91FF90DF90CF90BF90AF9008950E9482
:10348000571B8823D1F2F82EEFCFF60181916F01FF
:103490008093F1002197FFEFAF1ABF0ACECFFC0156
:1034A000CB0120915F02309160022617370790F020
:1034B000009729F42091E8002E772093E80040E05F
:1034C000009751F4411108C08091E80082FF31C09B
:1034D00080E00895C901F3CF209158022223A9F179
:1034E0002530A9F12091E80023FD2DC02091E800AE
:1034F00022FDEACF2091E80020FFE2CF3091F300D7
:103500002091F200009719F02830310558F041E081
:103510002830310509F040E02091E8002E77209313
:10352000E800CECF41914093F10001972F5F3F4FCC
:10353000E9CF80915802882341F0853041F0809195
:10354000E80083FFC1CF81E0089582E0089583E021
:103550000895FC01CB0120915F0230916002261793
:10356000370790F0009729F42091E8002E772093F8
:10357000E80040E0009751F4411108C08091E80054
:1035800082FF32C080E00895C901F3CF2091580234
:103590002223B1F12530B1F12091E80023FD2EC0A6
:1035A0002091E80022FDEACF2091E80020FFE2CF41
:1035B0003091F3002091F200009719F02830310586
:1035C00058F041E02830310509F040E02091E80052
:1035D0002E772093E800CECF44914093F1003196AE
:1035E00001972F5F3F4FE8CF80915802882341F029
:1035F000853041F08091E80083FFC0CF81E00895DD
:1036000082E0089583E00895982F973028F08F7016
:103610008093E90081E008959093E900242F762FAC
:1036200050E0981731F07091EC002091ED0050912E
:10363000F00021FD02C09F5FE8CF3091EB003E7F9C
:103640003093EB003091ED003D7F3093ED003091F1
:10365000EB0031603093EB007093EC002093ED00B1
:103660005093F0002091EE0027FDE5CF80E0089513
:103670008091590287FF13C08091E80082FF06C045
:103680008091E8008B778093E80004C08091580215
:103690008111F2CF0895809158028823D9F3809147
:1036A000E80080FFF8CF8091E8008E77ECCF209182
:1036B000E4003091E50095E6A9012091EC00822F0D
:1036C000817020FF06C08091E80080FF06C080E086
:1036D00008952091E80022FD1AC0809158028823A5
:1036E00089F0853089F08091EB0085FD0FC0209135
:1036F000E4003091E50042175307F9F29150E1F6EA
:1037000084E0089582E0089583E0089581E00895BB
:103710000E94F61B0E94FE1BE0EEF0E080818160BB
:103720008083E8EDF0E080818F77808319BCA7ED7E
:10373000B0E08C918E7F8C9380818F7E80831092FD
:10374000570208950F931F93CF93DF930E94F61BA8
:103750000E94FE1BC8EDD0E088818F778883888126
:103760008068888388818F7D888319BC1092580275
:1037700010925402109256021092550200EE10E080
:10378000F80180818B7F808388818160888342E01B
:1037900060E080E00E94041BE1EEF0E080818E7F1B
:1037A0008083E2EEF0E080818160808380818860A8
:1037B0008083F80180818E7F808388818061888307
:1037C000DF91CF911F910F910895E8EDF0E0808196
:1037D0008F7E8083E7EDF0E080818160808384E0EC
:1037E00082BF81E0809357020C94A21BE8EDF0E0C9
:1037F00080818E7F80831092E20008951092DA001B
:103800001092E10008951F920F920FB60F921124AB
:103810002F933F934F935F936F937F938F939F93D8
:10382000AF93BF93EF93FF938091E10082FF0BC0B2
:103830008091E20082FF07C08091E1008B7F80933E
:10384000E1000E946C1E8091DA0080FF19C0809117
:10385000D80080FF15C08091DA008E7F8093DA0057
:103860008091D90080FF94C080E189BD82E189BD4B
:1038700009B400FEFDCF81E0809358020E946F18CA
:103880008091E10080FF19C08091E20080FF15C0A7
:103890008091E2008E7F8093E2008091E20080615F
:1038A0008093E2008091D80080628093D80019BC98
:1038B00085E0809358020E9481188091E10084FF86
:1038C00029C08091E20084FF25C080E189BD82E1AA
:1038D00089BD09B400FEFDCF8091D8008F7D809313
:1038E000D8008091E1008F7E8093E1008091E2001A
:1038F0008F7E8093E2008091E20081608093E200FD
:1039000080915402882309F449C084E080935802CE
:103910000E9482188091E10083FF29C08091E2001B
:1039200083FF25C08091E100877F8093E10082E0E2
:1039300080935802109254028091E1008E7F809310
:10394000E1008091E2008E7F8093E2008091E200AE
:1039500080618093E20042E060E080E00E94041B0E
:103960008091F00088608093F0000E948018FF91A1
:10397000EF91BF91AF919F918F917F916F915F91E7
:103980004F913F912F910F900FBE0F901F90189560
:1039900019BC109258020E947D1872CF8091E300EA
:1039A00087FD02C081E0B2CF83E0B0CF1F920F92BB
:1039B0000FB60F9211242F933F934F935F936F9302
:1039C0007F938F939F93AF93BF93CF93DF93EF93A7
:1039D000FF93D091E900DF708091EC00C82FC17097
:1039E00080FDC0E81092E9008091F000877F80930D
:1039F000F00078940E941A1D1092E9008091F00066
:103A000088608093F000CD2BCF70C093E900FF91C8
:103A1000EF91DF91CF91BF91AF919F918F917F9166
:103A20006F915F914F913F912F910F900FBE0F902B
:103A30001F9018951F93CF93DF93CDB7DEB7AA974A
:103A40000FB6F894DEBF0FBECDBF89E592E0FC0152
:103A500001962091F100208322E081369207B9F788
:103A60000E948D188091E80083FF1EC18091590249
:103A700090915A029A3008F017C1E92FF0E0EE5DFC
:103A8000F04E0C949C1E803899F0823809F00CC1DD
:103A900080915D028F70873008F006C18093E90045
:103AA0008091EB0085FB882780F91092E90006C021
:103AB0008091550290915602911182609091E80098
:103AC000977F9093E8008093F1001092F10080912D
:103AD000E8008E77E5C0882309F4D3C0823009F06E
:103AE000E3C080915B028111D6C080915D028F702E
:103AF0002FEF280F263008F0D7C08093E9002091DF
:103B0000EB0020FFC8C0933031F48091EB0080625D
:103B10008093EB00C0C09091EB0090619093EB001C
:103B200021E030E001C0220F8A95EAF72093EA00F5
:103B30001092EA008091EB008860EACF8111B4C056
:103B400010915B021F778091E3008078812B809336
:103B5000E3008091E800877F8093E8000E94381B93
:103B60008091E80080FFFCCF8091E3008068809323
:103B7000E30082E0111183E08093580295C08058E1
:103B8000823008F091C080915B0290915C028C3D84
:103B900023E09207A1F583E08A838AE289834FB705
:103BA000F894DE01139620E03EE051E2E32FF0E0CE
:103BB00050935700E49120FF03C0E295EF703F5F00
:103BC000EF708E2F90E0EA30C0F0C7968D939D93F2
:103BD0002F5F243159F74FBF8091E800877F809392
:103BE000E8006AE270E0CE0101960E944F1A8091CF
:103BF000E8008B778093E80057C0C096E7CF6091CC
:103C00005D0270915E02AE014F5F5F4F0E948E19A0
:103C1000BC01892B09F448C08091E800877F80931C
:103C2000E80089819A810E94A91AE1CF8038E1F5E4
:103C30008091E800877F8093E80080915402809310
:103C4000F10045CF811130C090915B02923060F558
:103C50008091E800877F8093E800909354020E944F
:103C6000381B80915402882311F084E005C08091B4
:103C7000E30087FDFACF81E0809358020E94831809
:103C800013C080915B02813079F481E0933009F0B8
:103C900080E0809356021092E9008091E800877FCF
:103CA0008093E8000E94381B8091E80083FF0AC0DF
:103CB0008091E800877F8093E8008091EB0080622C
:103CC0008093EB00AA960FB6F894DEBF0FBECDBF6F
:103CD000DF91CF911F9108950895CF93809158025D
:103CE0008823A1F0C091E900CF709091EC00892F5A
:103CF000817090FD80E8C82B1092E9008091E80067
:103D000083FD0E941A1DCF70C093E900CF910895E2
:103D100097FB072E16F4009407D077FD09D00E9478
:103D2000A21E07FC05D03EF4909581959F4F089503
:103D3000709561957F4F0895EE0FFF1F0590F491E8
:103D4000E02D0994AA1BBB1B51E107C0AA1FBB1F92
:103D5000A617B70710F0A61BB70B881F991F5A9517
:103D6000A9F780959095BC01CD010895F999FECFF2
:103D700092BD81BDF89A992780B50895A8E1B0E079
:103D800042E050E00C94EA1E262FF999FECF92BD36
:103D900081BDF89A019700B4021639F01FBA20BD10
:103DA0000FB6F894FA9AF99A0FBE08950396272F42
:103DB0000E94C51E0E94C41E252F0E94C51E242FCE
:103DC0000C94C51E0196272F0E94C51E0C94C41E7C
:103DD000DC01CB01FC01F999FECF06C0F2BDE1BDCB
:103DE000F89A319600B40D9241505040B8F70895BA
:103DF000F894FFCF37093D0941094F095309570985
:103E00005B09610969096D097109750981098509EC
:103E100089098D099309B1099B0945094B0979095C
:103E20007D0965099709A709BA09BE09B20CB20C48
:103E3000140D140D690D850DE20CE20C900D3A0E77
:103E40004B0E4B0E431D6B1D541E6B1D541E9E1DB1
:083E5000BF1D541E161E221EA8
:103E58002808641E140A321E2302E2173F1820188D
:103E68001C18181801E200E900EA00B500B600B70E
:103E780000CD008301CC008A019201940121022324
:103E88000224022502260227022A02B300B4006F88
:103E98000070006697C63435F4F5F6F731333236DC
:103EA800379392919490E200E900EA00B500B600D9
:103EB800B700CD008301CC008A0192019401210250
:103EC800230224022502260227022A02B300B40094
:043ED8006F00700007
:00000001FF
